{
  "_format": "hh-sol-artifact-1",
  "contractName": "MedicalRecordNFT",
  "sourceName": "contracts/MedicalRecordNFT.sol",
  "abi": [
    {
      "inputs": [
        {
          "internalType": "address",
          "name": "hospitalWallet",
          "type": "address"
        }
      ],
      "stateMutability": "nonpayable",
      "type": "constructor"
    },
    {
      "anonymous": false,
      "inputs": [
        {
          "indexed": true,
          "internalType": "address",
          "name": "owner",
          "type": "address"
        },
        {
          "indexed": true,
          "internalType": "address",
          "name": "approved",
          "type": "address"
        },
        {
          "indexed": true,
          "internalType": "uint256",
          "name": "tokenId",
          "type": "uint256"
        }
      ],
      "name": "Approval",
      "type": "event"
    },
    {
      "anonymous": false,
      "inputs": [
        {
          "indexed": true,
          "internalType": "address",
          "name": "owner",
          "type": "address"
        },
        {
          "indexed": true,
          "internalType": "address",
          "name": "operator",
          "type": "address"
        },
        {
          "indexed": false,
          "internalType": "bool",
          "name": "approved",
          "type": "bool"
        }
      ],
      "name": "ApprovalForAll",
      "type": "event"
    },
    {
      "anonymous": false,
      "inputs": [
        {
          "indexed": true,
          "internalType": "address",
          "name": "hospital",
          "type": "address"
        }
      ],
      "name": "HospitalRoleAdded",
      "type": "event"
    },
    {
      "anonymous": false,
      "inputs": [
        {
          "indexed": true,
          "internalType": "address",
          "name": "hospital",
          "type": "address"
        }
      ],
      "name": "HospitalRoleRemoved",
      "type": "event"
    },
    {
      "anonymous": false,
      "inputs": [
        {
          "indexed": false,
          "internalType": "uint256",
          "name": "tokenId",
          "type": "uint256"
        },
        {
          "indexed": false,
          "internalType": "address",
          "name": "from",
          "type": "address"
        },
        {
          "indexed": false,
          "internalType": "address",
          "name": "to",
          "type": "address"
        },
        {
          "indexed": false,
          "internalType": "string",
          "name": "tokenURI",
          "type": "string"
        },
        {
          "indexed": false,
          "internalType": "uint256",
          "name": "timestamp",
          "type": "uint256"
        }
      ],
      "name": "NFTTransfer",
      "type": "event"
    },
    {
      "anonymous": false,
      "inputs": [
        {
          "indexed": true,
          "internalType": "address",
          "name": "previousOwner",
          "type": "address"
        },
        {
          "indexed": true,
          "internalType": "address",
          "name": "newOwner",
          "type": "address"
        }
      ],
      "name": "OwnershipTransferred",
      "type": "event"
    },
    {
      "anonymous": false,
      "inputs": [
        {
          "indexed": true,
          "internalType": "address",
          "name": "from",
          "type": "address"
        },
        {
          "indexed": true,
          "internalType": "address",
          "name": "to",
          "type": "address"
        },
        {
          "indexed": true,
          "internalType": "uint256",
          "name": "tokenId",
          "type": "uint256"
        }
      ],
      "name": "Transfer",
      "type": "event"
    },
    {
      "inputs": [
        {
          "internalType": "address",
          "name": "hospital",
          "type": "address"
        }
      ],
      "name": "addHospitalRole",
      "outputs": [],
      "stateMutability": "nonpayable",
      "type": "function"
    },
    {
      "inputs": [
        {
          "internalType": "address",
          "name": "to",
          "type": "address"
        },
        {
          "internalType": "uint256",
          "name": "tokenId",
          "type": "uint256"
        }
      ],
      "name": "approve",
      "outputs": [],
      "stateMutability": "nonpayable",
      "type": "function"
    },
    {
      "inputs": [
        {
          "internalType": "address",
          "name": "owner",
          "type": "address"
        }
      ],
      "name": "balanceOf",
      "outputs": [
        {
          "internalType": "uint256",
          "name": "",
          "type": "uint256"
        }
      ],
      "stateMutability": "view",
      "type": "function"
    },
    {
      "inputs": [
        {
          "internalType": "uint256",
          "name": "tokenId",
          "type": "uint256"
        }
      ],
      "name": "getApproved",
      "outputs": [
        {
          "internalType": "address",
          "name": "",
          "type": "address"
        }
      ],
      "stateMutability": "view",
      "type": "function"
    },
    {
      "inputs": [
        {
          "internalType": "address",
          "name": "owner",
          "type": "address"
        },
        {
          "internalType": "address",
          "name": "operator",
          "type": "address"
        }
      ],
      "name": "isApprovedForAll",
      "outputs": [
        {
          "internalType": "bool",
          "name": "",
          "type": "bool"
        }
      ],
      "stateMutability": "view",
      "type": "function"
    },
    {
      "inputs": [
        {
          "internalType": "address",
          "name": "_address",
          "type": "address"
        }
      ],
      "name": "isHospital",
      "outputs": [
        {
          "internalType": "bool",
          "name": "",
          "type": "bool"
        }
      ],
      "stateMutability": "view",
      "type": "function"
    },
    {
      "inputs": [
        {
          "internalType": "address",
          "name": "patientWallet",
          "type": "address"
        },
        {
          "internalType": "string",
          "name": "tokenURI",
          "type": "string"
        }
      ],
      "name": "mintToken",
      "outputs": [],
      "stateMutability": "nonpayable",
      "type": "function"
    },
    {
      "inputs": [],
      "name": "name",
      "outputs": [
        {
          "internalType": "string",
          "name": "",
          "type": "string"
        }
      ],
      "stateMutability": "view",
      "type": "function"
    },
    {
      "inputs": [],
      "name": "owner",
      "outputs": [
        {
          "internalType": "address",
          "name": "",
          "type": "address"
        }
      ],
      "stateMutability": "view",
      "type": "function"
    },
    {
      "inputs": [
        {
          "internalType": "uint256",
          "name": "tokenId",
          "type": "uint256"
        }
      ],
      "name": "ownerOf",
      "outputs": [
        {
          "internalType": "address",
          "name": "",
          "type": "address"
        }
      ],
      "stateMutability": "view",
      "type": "function"
    },
    {
      "inputs": [
        {
          "internalType": "address",
          "name": "hospital",
          "type": "address"
        }
      ],
      "name": "removeHospitalRole",
      "outputs": [],
      "stateMutability": "nonpayable",
      "type": "function"
    },
    {
      "inputs": [],
      "name": "renounceOwnership",
      "outputs": [],
      "stateMutability": "nonpayable",
      "type": "function"
    },
    {
      "inputs": [
        {
          "internalType": "address",
          "name": "from",
          "type": "address"
        },
        {
          "internalType": "address",
          "name": "to",
          "type": "address"
        },
        {
          "internalType": "uint256",
          "name": "tokenId",
          "type": "uint256"
        }
      ],
      "name": "safeTransferFrom",
      "outputs": [],
      "stateMutability": "nonpayable",
      "type": "function"
    },
    {
      "inputs": [
        {
          "internalType": "address",
          "name": "from",
          "type": "address"
        },
        {
          "internalType": "address",
          "name": "to",
          "type": "address"
        },
        {
          "internalType": "uint256",
          "name": "tokenId",
          "type": "uint256"
        },
        {
          "internalType": "bytes",
          "name": "data",
          "type": "bytes"
        }
      ],
      "name": "safeTransferFrom",
      "outputs": [],
      "stateMutability": "nonpayable",
      "type": "function"
    },
    {
      "inputs": [
        {
          "internalType": "address",
          "name": "operator",
          "type": "address"
        },
        {
          "internalType": "bool",
          "name": "approved",
          "type": "bool"
        }
      ],
      "name": "setApprovalForAll",
      "outputs": [],
      "stateMutability": "nonpayable",
      "type": "function"
    },
    {
      "inputs": [
        {
          "internalType": "bytes4",
          "name": "interfaceId",
          "type": "bytes4"
        }
      ],
      "name": "supportsInterface",
      "outputs": [
        {
          "internalType": "bool",
          "name": "",
          "type": "bool"
        }
      ],
      "stateMutability": "view",
      "type": "function"
    },
    {
      "inputs": [],
      "name": "symbol",
      "outputs": [
        {
          "internalType": "string",
          "name": "",
          "type": "string"
        }
      ],
      "stateMutability": "view",
      "type": "function"
    },
    {
      "inputs": [
        {
          "internalType": "uint256",
          "name": "tokenId",
          "type": "uint256"
        }
      ],
      "name": "tokenURI",
      "outputs": [
        {
          "internalType": "string",
          "name": "",
          "type": "string"
        }
      ],
      "stateMutability": "view",
      "type": "function"
    },
    {
      "inputs": [
        {
          "internalType": "address",
          "name": "from",
          "type": "address"
        },
        {
          "internalType": "address",
          "name": "to",
          "type": "address"
        },
        {
          "internalType": "uint256",
          "name": "tokenId",
          "type": "uint256"
        }
      ],
      "name": "transferFrom",
      "outputs": [],
      "stateMutability": "nonpayable",
      "type": "function"
    },
    {
      "inputs": [
        {
          "internalType": "address",
          "name": "newOwner",
          "type": "address"
        }
      ],
      "name": "transferOwnership",
      "outputs": [],
      "stateMutability": "nonpayable",
      "type": "function"
    }
  ],
  "bytecode": "0x60806040523480156200001157600080fd5b5060405162003b1738038062003b178339818101604052810190620000379190620002c1565b6040518060400160405280601081526020017f4d65646963616c5265636f72644e4654000000000000000000000000000000008152506040518060400160405280600581526020017f4d524e46540000000000000000000000000000000000000000000000000000008152508160009081620000b491906200056d565b508060019081620000c691906200056d565b505050620000e9620000dd6200018960201b60201c565b6200019160201b60201c565b80600960006101000a81548173ffffffffffffffffffffffffffffffffffffffff021916908373ffffffffffffffffffffffffffffffffffffffff1602179055506001600a60008373ffffffffffffffffffffffffffffffffffffffff1673ffffffffffffffffffffffffffffffffffffffff16815260200190815260200160002060006101000a81548160ff0219169083151502179055505062000654565b600033905090565b6000600760009054906101000a900473ffffffffffffffffffffffffffffffffffffffff16905081600760006101000a81548173ffffffffffffffffffffffffffffffffffffffff021916908373ffffffffffffffffffffffffffffffffffffffff1602179055508173ffffffffffffffffffffffffffffffffffffffff168173ffffffffffffffffffffffffffffffffffffffff167f8be0079c531659141344cd1fd0a4f28419497f9722a3daafe3b4186f6b6457e060405160405180910390a35050565b600080fd5b600073ffffffffffffffffffffffffffffffffffffffff82169050919050565b600062000289826200025c565b9050919050565b6200029b816200027c565b8114620002a757600080fd5b50565b600081519050620002bb8162000290565b92915050565b600060208284031215620002da57620002d962000257565b5b6000620002ea84828501620002aa565b91505092915050565b600081519050919050565b7f4e487b7100000000000000000000000000000000000000000000000000000000600052604160045260246000fd5b7f4e487b7100000000000000000000000000000000000000000000000000000000600052602260045260246000fd5b600060028204905060018216806200037557607f821691505b6020821081036200038b576200038a6200032d565b5b50919050565b60008190508160005260206000209050919050565b60006020601f8301049050919050565b600082821b905092915050565b600060088302620003f57fffffffffffffffffffffffffffffffffffffffffffffffffffffffffffffffff82620003b6565b620004018683620003b6565b95508019841693508086168417925050509392505050565b6000819050919050565b6000819050919050565b60006200044e62000448620004428462000419565b62000423565b62000419565b9050919050565b6000819050919050565b6200046a836200042d565b62000482620004798262000455565b848454620003c3565b825550505050565b600090565b620004996200048a565b620004a68184846200045f565b505050565b5b81811015620004ce57620004c26000826200048f565b600181019050620004ac565b5050565b601f8211156200051d57620004e78162000391565b620004f284620003a6565b8101602085101562000502578190505b6200051a6200051185620003a6565b830182620004ab565b50505b505050565b600082821c905092915050565b6000620005426000198460080262000522565b1980831691505092915050565b60006200055d83836200052f565b9150826002028217905092915050565b6200057882620002f3565b67ffffffffffffffff811115620005945762000593620002fe565b5b620005a082546200035c565b620005ad828285620004d2565b600060209050601f831160018114620005e55760008415620005d0578287015190505b620005dc85826200054f565b8655506200064c565b601f198416620005f58662000391565b60005b828110156200061f57848901518255600182019150602085019450602081019050620005f8565b868310156200063f57848901516200063b601f8916826200052f565b8355505b6001600288020188555050505b505050505050565b6134b380620006646000396000f3fe608060405234801561001057600080fd5b506004361061012c5760003560e01c80638da5cb5b116100ad578063c3c3b37f11610071578063c3c3b37f1461032d578063c87b56dd14610349578063d6ca330214610379578063e985e9c514610395578063f2fde38b146103c55761012c565b80638da5cb5b1461028957806395d89b41146102a7578063a22cb465146102c5578063b88d4fde146102e1578063bdf6c673146102fd5761012c565b80633d02d0c9116100f45780633d02d0c9146101e757806342842e0e146102035780636352211e1461021f57806370a082311461024f578063715018a61461027f5761012c565b806301ffc9a71461013157806306fdde0314610161578063081812fc1461017f578063095ea7b3146101af57806323b872dd146101cb575b600080fd5b61014b60048036038101906101469190612074565b6103e1565b60405161015891906120bc565b60405180910390f35b6101696104c3565b6040516101769190612167565b60405180910390f35b610199600480360381019061019491906121bf565b610555565b6040516101a6919061222d565b60405180910390f35b6101c960048036038101906101c49190612274565b61059b565b005b6101e560048036038101906101e091906122b4565b6106b2565b005b61020160048036038101906101fc919061243c565b610712565b005b61021d600480360381019061021891906122b4565b61080f565b005b610239600480360381019061023491906121bf565b61082f565b604051610246919061222d565b60405180910390f35b61026960048036038101906102649190612498565b6108b5565b60405161027691906124d4565b60405180910390f35b61028761096c565b005b610291610980565b60405161029e919061222d565b60405180910390f35b6102af6109aa565b6040516102bc9190612167565b60405180910390f35b6102df60048036038101906102da919061251b565b610a3c565b005b6102fb60048036038101906102f691906125fc565b610a52565b005b61031760048036038101906103129190612498565b610ab4565b60405161032491906120bc565b60405180910390f35b61034760048036038101906103429190612498565b610b0a565b005b610363600480360381019061035e91906121bf565b610cac565b6040516103709190612167565b60405180910390f35b610393600480360381019061038e9190612498565b610dbe565b005b6103af60048036038101906103aa919061267f565b610f5f565b6040516103bc91906120bc565b60405180910390f35b6103df60048036038101906103da9190612498565b610ff3565b005b60007f80ac58cd000000000000000000000000000000000000000000000000000000007bffffffffffffffffffffffffffffffffffffffffffffffffffffffff1916827bffffffffffffffffffffffffffffffffffffffffffffffffffffffff191614806104ac57507f5b5e139f000000000000000000000000000000000000000000000000000000007bffffffffffffffffffffffffffffffffffffffffffffffffffffffff1916827bffffffffffffffffffffffffffffffffffffffffffffffffffffffff1916145b806104bc57506104bb82611076565b5b9050919050565b6060600080546104d2906126ee565b80601f01602080910402602001604051908101604052809291908181526020018280546104fe906126ee565b801561054b5780601f106105205761010080835404028352916020019161054b565b820191906000526020600020905b81548152906001019060200180831161052e57829003601f168201915b5050505050905090565b6000610560826110e0565b6004600083815260200190815260200160002060009054906101000a900473ffffffffffffffffffffffffffffffffffffffff169050919050565b60006105a68261082f565b90508073ffffffffffffffffffffffffffffffffffffffff168373ffffffffffffffffffffffffffffffffffffffff1603610616576040517f08c379a000000000000000000000000000000000000000000000000000000000815260040161060d90612791565b60405180910390fd5b8073ffffffffffffffffffffffffffffffffffffffff1661063561112b565b73ffffffffffffffffffffffffffffffffffffffff16148061066457506106638161065e61112b565b610f5f565b5b6106a3576040517f08c379a000000000000000000000000000000000000000000000000000000000815260040161069a90612823565b60405180910390fd5b6106ad8383611133565b505050565b6106c36106bd61112b565b826111ec565b610702576040517f08c379a00000000000000000000000000000000000000000000000000000000081526004016106f9906128b5565b60405180910390fd5b61070d838383611281565b505050565b600a60003373ffffffffffffffffffffffffffffffffffffffff1673ffffffffffffffffffffffffffffffffffffffff16815260200190815260200160002060009054906101000a900460ff1661079e576040517f08c379a000000000000000000000000000000000000000000000000000000000815260040161079590612947565b60405180910390fd5b6107a8600861157a565b60006107b46008611590565b90506107c0838261159e565b6107ca81836117bb565b7f705332a8918666802fc1504f63ff1f002a5f6cedd30d59ad7ae0b5281aeb8dca816000858542604051610802959493929190612967565b60405180910390a1505050565b61082a83838360405180602001604052806000815250610a52565b505050565b60008061083b83611828565b9050600073ffffffffffffffffffffffffffffffffffffffff168173ffffffffffffffffffffffffffffffffffffffff16036108ac576040517f08c379a00000000000000000000000000000000000000000000000000000000081526004016108a390612a0d565b60405180910390fd5b80915050919050565b60008073ffffffffffffffffffffffffffffffffffffffff168273ffffffffffffffffffffffffffffffffffffffff1603610925576040517f08c379a000000000000000000000000000000000000000000000000000000000815260040161091c90612a9f565b60405180910390fd5b600360008373ffffffffffffffffffffffffffffffffffffffff1673ffffffffffffffffffffffffffffffffffffffff168152602001908152602001600020549050919050565b610974611865565b61097e60006118e3565b565b6000600760009054906101000a900473ffffffffffffffffffffffffffffffffffffffff16905090565b6060600180546109b9906126ee565b80601f01602080910402602001604051908101604052809291908181526020018280546109e5906126ee565b8015610a325780601f10610a0757610100808354040283529160200191610a32565b820191906000526020600020905b815481529060010190602001808311610a1557829003601f168201915b5050505050905090565b610a4e610a4761112b565b83836119a9565b5050565b610a63610a5d61112b565b836111ec565b610aa2576040517f08c379a0000000000000000000000000000000000000000000000000000000008152600401610a99906128b5565b60405180910390fd5b610aae84848484611b15565b50505050565b6000600a60008373ffffffffffffffffffffffffffffffffffffffff1673ffffffffffffffffffffffffffffffffffffffff16815260200190815260200160002060009054906101000a900460ff169050919050565b610b12611865565b600073ffffffffffffffffffffffffffffffffffffffff168173ffffffffffffffffffffffffffffffffffffffff1603610b81576040517f08c379a0000000000000000000000000000000000000000000000000000000008152600401610b7890612b0b565b60405180910390fd5b600a60008273ffffffffffffffffffffffffffffffffffffffff1673ffffffffffffffffffffffffffffffffffffffff16815260200190815260200160002060009054906101000a900460ff1615610c0e576040517f08c379a0000000000000000000000000000000000000000000000000000000008152600401610c0590612b77565b60405180910390fd5b6001600a60008373ffffffffffffffffffffffffffffffffffffffff1673ffffffffffffffffffffffffffffffffffffffff16815260200190815260200160002060006101000a81548160ff0219169083151502179055508073ffffffffffffffffffffffffffffffffffffffff167f8e00001e88d778b11ddeea308b26ca9aa839a2fab0d8d1a6b106d658a8be1b6260405160405180910390a250565b6060610cb7826110e0565b6000600660008481526020019081526020016000208054610cd7906126ee565b80601f0160208091040260200160405190810160405280929190818152602001828054610d03906126ee565b8015610d505780601f10610d2557610100808354040283529160200191610d50565b820191906000526020600020905b815481529060010190602001808311610d3357829003601f168201915b505050505090506000610d61611b71565b90506000815103610d76578192505050610db9565b600082511115610dab578082604051602001610d93929190612bd3565b60405160208183030381529060405292505050610db9565b610db484611b88565b925050505b919050565b610dc6611865565b600073ffffffffffffffffffffffffffffffffffffffff168173ffffffffffffffffffffffffffffffffffffffff1603610e35576040517f08c379a0000000000000000000000000000000000000000000000000000000008152600401610e2c90612b0b565b60405180910390fd5b600a60008273ffffffffffffffffffffffffffffffffffffffff1673ffffffffffffffffffffffffffffffffffffffff16815260200190815260200160002060009054906101000a900460ff16610ec1576040517f08c379a0000000000000000000000000000000000000000000000000000000008152600401610eb890612c43565b60405180910390fd5b6000600a60008373ffffffffffffffffffffffffffffffffffffffff1673ffffffffffffffffffffffffffffffffffffffff16815260200190815260200160002060006101000a81548160ff0219169083151502179055508073ffffffffffffffffffffffffffffffffffffffff167f1cfe80bf516312a9d100cec35992e66ad393ea20687a062d3f52567cd20c325960405160405180910390a250565b6000600560008473ffffffffffffffffffffffffffffffffffffffff1673ffffffffffffffffffffffffffffffffffffffff16815260200190815260200160002060008373ffffffffffffffffffffffffffffffffffffffff1673ffffffffffffffffffffffffffffffffffffffff16815260200190815260200160002060009054906101000a900460ff16905092915050565b610ffb611865565b600073ffffffffffffffffffffffffffffffffffffffff168173ffffffffffffffffffffffffffffffffffffffff160361106a576040517f08c379a000000000000000000000000000000000000000000000000000000000815260040161106190612cd5565b60405180910390fd5b611073816118e3565b50565b60007f01ffc9a7000000000000000000000000000000000000000000000000000000007bffffffffffffffffffffffffffffffffffffffffffffffffffffffff1916827bffffffffffffffffffffffffffffffffffffffffffffffffffffffff1916149050919050565b6110e981611bf0565b611128576040517f08c379a000000000000000000000000000000000000000000000000000000000815260040161111f90612a0d565b60405180910390fd5b50565b600033905090565b816004600083815260200190815260200160002060006101000a81548173ffffffffffffffffffffffffffffffffffffffff021916908373ffffffffffffffffffffffffffffffffffffffff160217905550808273ffffffffffffffffffffffffffffffffffffffff166111a68361082f565b73ffffffffffffffffffffffffffffffffffffffff167f8c5be1e5ebec7d5bd14f71427d1e84f3dd0314c0f7b2291e5b200ac8c7c3b92560405160405180910390a45050565b6000806111f88361082f565b90508073ffffffffffffffffffffffffffffffffffffffff168473ffffffffffffffffffffffffffffffffffffffff16148061123a57506112398185610f5f565b5b8061127857508373ffffffffffffffffffffffffffffffffffffffff1661126084610555565b73ffffffffffffffffffffffffffffffffffffffff16145b91505092915050565b8273ffffffffffffffffffffffffffffffffffffffff166112a18261082f565b73ffffffffffffffffffffffffffffffffffffffff16146112f7576040517f08c379a00000000000000000000000000000000000000000000000000000000081526004016112ee90612d67565b60405180910390fd5b600073ffffffffffffffffffffffffffffffffffffffff168273ffffffffffffffffffffffffffffffffffffffff1603611366576040517f08c379a000000000000000000000000000000000000000000000000000000000815260040161135d90612df9565b60405180910390fd5b6113738383836001611c31565b8273ffffffffffffffffffffffffffffffffffffffff166113938261082f565b73ffffffffffffffffffffffffffffffffffffffff16146113e9576040517f08c379a00000000000000000000000000000000000000000000000000000000081526004016113e090612d67565b60405180910390fd5b6004600082815260200190815260200160002060006101000a81549073ffffffffffffffffffffffffffffffffffffffff02191690556001600360008573ffffffffffffffffffffffffffffffffffffffff1673ffffffffffffffffffffffffffffffffffffffff168152602001908152602001600020600082825403925050819055506001600360008473ffffffffffffffffffffffffffffffffffffffff1673ffffffffffffffffffffffffffffffffffffffff16815260200190815260200160002060008282540192505081905550816002600083815260200190815260200160002060006101000a81548173ffffffffffffffffffffffffffffffffffffffff021916908373ffffffffffffffffffffffffffffffffffffffff160217905550808273ffffffffffffffffffffffffffffffffffffffff168473ffffffffffffffffffffffffffffffffffffffff167fddf252ad1be2c89b69c2b068fc378daa952ba7f163c4a11628f55a4df523b3ef60405160405180910390a46115758383836001611c37565b505050565b6001816000016000828254019250508190555050565b600081600001549050919050565b600073ffffffffffffffffffffffffffffffffffffffff168273ffffffffffffffffffffffffffffffffffffffff160361160d576040517f08c379a000000000000000000000000000000000000000000000000000000000815260040161160490612e65565b60405180910390fd5b61161681611bf0565b15611656576040517f08c379a000000000000000000000000000000000000000000000000000000000815260040161164d90612ed1565b60405180910390fd5b611664600083836001611c31565b61166d81611bf0565b156116ad576040517f08c379a00000000000000000000000000000000000000000000000000000000081526004016116a490612ed1565b60405180910390fd5b6001600360008473ffffffffffffffffffffffffffffffffffffffff1673ffffffffffffffffffffffffffffffffffffffff16815260200190815260200160002060008282540192505081905550816002600083815260200190815260200160002060006101000a81548173ffffffffffffffffffffffffffffffffffffffff021916908373ffffffffffffffffffffffffffffffffffffffff160217905550808273ffffffffffffffffffffffffffffffffffffffff16600073ffffffffffffffffffffffffffffffffffffffff167fddf252ad1be2c89b69c2b068fc378daa952ba7f163c4a11628f55a4df523b3ef60405160405180910390a46117b7600083836001611c37565b5050565b6117c482611bf0565b611803576040517f08c379a00000000000000000000000000000000000000000000000000000000081526004016117fa90612f63565b60405180910390fd5b80600660008481526020019081526020016000209081611823919061312f565b505050565b60006002600083815260200190815260200160002060009054906101000a900473ffffffffffffffffffffffffffffffffffffffff169050919050565b61186d61112b565b73ffffffffffffffffffffffffffffffffffffffff1661188b610980565b73ffffffffffffffffffffffffffffffffffffffff16146118e1576040517f08c379a00000000000000000000000000000000000000000000000000000000081526004016118d89061324d565b60405180910390fd5b565b6000600760009054906101000a900473ffffffffffffffffffffffffffffffffffffffff16905081600760006101000a81548173ffffffffffffffffffffffffffffffffffffffff021916908373ffffffffffffffffffffffffffffffffffffffff1602179055508173ffffffffffffffffffffffffffffffffffffffff168173ffffffffffffffffffffffffffffffffffffffff167f8be0079c531659141344cd1fd0a4f28419497f9722a3daafe3b4186f6b6457e060405160405180910390a35050565b8173ffffffffffffffffffffffffffffffffffffffff168373ffffffffffffffffffffffffffffffffffffffff1603611a17576040517f08c379a0000000000000000000000000000000000000000000000000000000008152600401611a0e906132b9565b60405180910390fd5b80600560008573ffffffffffffffffffffffffffffffffffffffff1673ffffffffffffffffffffffffffffffffffffffff16815260200190815260200160002060008473ffffffffffffffffffffffffffffffffffffffff1673ffffffffffffffffffffffffffffffffffffffff16815260200190815260200160002060006101000a81548160ff0219169083151502179055508173ffffffffffffffffffffffffffffffffffffffff168373ffffffffffffffffffffffffffffffffffffffff167f17307eab39ab6107e8899845ad3d59bd9653f200f220920489ca2b5937696c3183604051611b0891906120bc565b60405180910390a3505050565b611b20848484611281565b611b2c84848484611c3d565b611b6b576040517f08c379a0000000000000000000000000000000000000000000000000000000008152600401611b629061334b565b60405180910390fd5b50505050565b606060405180602001604052806000815250905090565b6060611b93826110e0565b6000611b9d611b71565b90506000815111611bbd5760405180602001604052806000815250611be8565b80611bc784611dc4565b604051602001611bd8929190612bd3565b6040516020818303038152906040525b915050919050565b60008073ffffffffffffffffffffffffffffffffffffffff16611c1283611828565b73ffffffffffffffffffffffffffffffffffffffff1614159050919050565b50505050565b50505050565b6000611c5e8473ffffffffffffffffffffffffffffffffffffffff16611e92565b15611db7578373ffffffffffffffffffffffffffffffffffffffff1663150b7a02611c8761112b565b8786866040518563ffffffff1660e01b8152600401611ca994939291906133c0565b6020604051808303816000875af1925050508015611ce557506040513d601f19601f82011682018060405250810190611ce29190613421565b60015b611d67573d8060008114611d15576040519150601f19603f3d011682016040523d82523d6000602084013e611d1a565b606091505b506000815103611d5f576040517f08c379a0000000000000000000000000000000000000000000000000000000008152600401611d569061334b565b60405180910390fd5b805181602001fd5b63150b7a0260e01b7bffffffffffffffffffffffffffffffffffffffffffffffffffffffff1916817bffffffffffffffffffffffffffffffffffffffffffffffffffffffff191614915050611dbc565b600190505b949350505050565b606060006001611dd384611eb5565b01905060008167ffffffffffffffff811115611df257611df1612311565b5b6040519080825280601f01601f191660200182016040528015611e245781602001600182028036833780820191505090505b509050600082602001820190505b600115611e87578080600190039150507f3031323334353637383961626364656600000000000000000000000000000000600a86061a8153600a8581611e7b57611e7a61344e565b5b04945060008503611e32575b819350505050919050565b6000808273ffffffffffffffffffffffffffffffffffffffff163b119050919050565b600080600090507a184f03e93ff9f4daa797ed6e38ed64bf6a1f0100000000000000008310611f13577a184f03e93ff9f4daa797ed6e38ed64bf6a1f0100000000000000008381611f0957611f0861344e565b5b0492506040810190505b6d04ee2d6d415b85acef81000000008310611f50576d04ee2d6d415b85acef81000000008381611f4657611f4561344e565b5b0492506020810190505b662386f26fc100008310611f7f57662386f26fc100008381611f7557611f7461344e565b5b0492506010810190505b6305f5e1008310611fa8576305f5e1008381611f9e57611f9d61344e565b5b0492506008810190505b6127108310611fcd576127108381611fc357611fc261344e565b5b0492506004810190505b60648310611ff05760648381611fe657611fe561344e565b5b0492506002810190505b600a8310611fff576001810190505b80915050919050565b6000604051905090565b600080fd5b600080fd5b60007fffffffff0000000000000000000000000000000000000000000000000000000082169050919050565b6120518161201c565b811461205c57600080fd5b50565b60008135905061206e81612048565b92915050565b60006020828403121561208a57612089612012565b5b60006120988482850161205f565b91505092915050565b60008115159050919050565b6120b6816120a1565b82525050565b60006020820190506120d160008301846120ad565b92915050565b600081519050919050565b600082825260208201905092915050565b60005b838110156121115780820151818401526020810190506120f6565b60008484015250505050565b6000601f19601f8301169050919050565b6000612139826120d7565b61214381856120e2565b93506121538185602086016120f3565b61215c8161211d565b840191505092915050565b60006020820190508181036000830152612181818461212e565b905092915050565b6000819050919050565b61219c81612189565b81146121a757600080fd5b50565b6000813590506121b981612193565b92915050565b6000602082840312156121d5576121d4612012565b5b60006121e3848285016121aa565b91505092915050565b600073ffffffffffffffffffffffffffffffffffffffff82169050919050565b6000612217826121ec565b9050919050565b6122278161220c565b82525050565b6000602082019050612242600083018461221e565b92915050565b6122518161220c565b811461225c57600080fd5b50565b60008135905061226e81612248565b92915050565b6000806040838503121561228b5761228a612012565b5b60006122998582860161225f565b92505060206122aa858286016121aa565b9150509250929050565b6000806000606084860312156122cd576122cc612012565b5b60006122db8682870161225f565b93505060206122ec8682870161225f565b92505060406122fd868287016121aa565b9150509250925092565b600080fd5b600080fd5b7f4e487b7100000000000000000000000000000000000000000000000000000000600052604160045260246000fd5b6123498261211d565b810181811067ffffffffffffffff8211171561236857612367612311565b5b80604052505050565b600061237b612008565b90506123878282612340565b919050565b600067ffffffffffffffff8211156123a7576123a6612311565b5b6123b08261211d565b9050602081019050919050565b82818337600083830152505050565b60006123df6123da8461238c565b612371565b9050828152602081018484840111156123fb576123fa61230c565b5b6124068482856123bd565b509392505050565b600082601f83011261242357612422612307565b5b81356124338482602086016123cc565b91505092915050565b6000806040838503121561245357612452612012565b5b60006124618582860161225f565b925050602083013567ffffffffffffffff81111561248257612481612017565b5b61248e8582860161240e565b9150509250929050565b6000602082840312156124ae576124ad612012565b5b60006124bc8482850161225f565b91505092915050565b6124ce81612189565b82525050565b60006020820190506124e960008301846124c5565b92915050565b6124f8816120a1565b811461250357600080fd5b50565b600081359050612515816124ef565b92915050565b6000806040838503121561253257612531612012565b5b60006125408582860161225f565b925050602061255185828601612506565b9150509250929050565b600067ffffffffffffffff82111561257657612575612311565b5b61257f8261211d565b9050602081019050919050565b600061259f61259a8461255b565b612371565b9050828152602081018484840111156125bb576125ba61230c565b5b6125c68482856123bd565b509392505050565b600082601f8301126125e3576125e2612307565b5b81356125f384826020860161258c565b91505092915050565b6000806000806080858703121561261657612615612012565b5b60006126248782880161225f565b94505060206126358782880161225f565b9350506040612646878288016121aa565b925050606085013567ffffffffffffffff81111561266757612666612017565b5b612673878288016125ce565b91505092959194509250565b6000806040838503121561269657612695612012565b5b60006126a48582860161225f565b92505060206126b58582860161225f565b9150509250929050565b7f4e487b7100000000000000000000000000000000000000000000000000000000600052602260045260246000fd5b6000600282049050600182168061270657607f821691505b602082108103612719576127186126bf565b5b50919050565b7f4552433732313a20617070726f76616c20746f2063757272656e74206f776e6560008201527f7200000000000000000000000000000000000000000000000000000000000000602082015250565b600061277b6021836120e2565b91506127868261271f565b604082019050919050565b600060208201905081810360008301526127aa8161276e565b9050919050565b7f4552433732313a20617070726f76652063616c6c6572206973206e6f7420746f60008201527f6b656e206f776e6572206f7220617070726f76656420666f7220616c6c000000602082015250565b600061280d603d836120e2565b9150612818826127b1565b604082019050919050565b6000602082019050818103600083015261283c81612800565b9050919050565b7f4552433732313a2063616c6c6572206973206e6f7420746f6b656e206f776e6560008201527f72206f7220617070726f76656400000000000000000000000000000000000000602082015250565b600061289f602d836120e2565b91506128aa82612843565b604082019050919050565b600060208201905081810360008301526128ce81612892565b9050919050565b7f4f6e6c7920686f73706974616c2063616e20706572666f726d2074686973206160008201527f6374696f6e000000000000000000000000000000000000000000000000000000602082015250565b60006129316025836120e2565b915061293c826128d5565b604082019050919050565b6000602082019050818103600083015261296081612924565b9050919050565b600060a08201905061297c60008301886124c5565b612989602083018761221e565b612996604083018661221e565b81810360608301526129a8818561212e565b90506129b760808301846124c5565b9695505050505050565b7f4552433732313a20696e76616c696420746f6b656e2049440000000000000000600082015250565b60006129f76018836120e2565b9150612a02826129c1565b602082019050919050565b60006020820190508181036000830152612a26816129ea565b9050919050565b7f4552433732313a2061646472657373207a65726f206973206e6f74206120766160008201527f6c6964206f776e65720000000000000000000000000000000000000000000000602082015250565b6000612a896029836120e2565b9150612a9482612a2d565b604082019050919050565b60006020820190508181036000830152612ab881612a7c565b9050919050565b7f486f73706974616c20616464726573732063616e6e6f74206265207a65726f00600082015250565b6000612af5601f836120e2565b9150612b0082612abf565b602082019050919050565b60006020820190508181036000830152612b2481612ae8565b9050919050565b7f486f73706974616c20726f6c6520616c72656164792061646465640000000000600082015250565b6000612b61601b836120e2565b9150612b6c82612b2b565b602082019050919050565b60006020820190508181036000830152612b9081612b54565b9050919050565b600081905092915050565b6000612bad826120d7565b612bb78185612b97565b9350612bc78185602086016120f3565b80840191505092915050565b6000612bdf8285612ba2565b9150612beb8284612ba2565b91508190509392505050565b7f486f73706974616c20726f6c65206e6f7420666f756e64000000000000000000600082015250565b6000612c2d6017836120e2565b9150612c3882612bf7565b602082019050919050565b60006020820190508181036000830152612c5c81612c20565b9050919050565b7f4f776e61626c653a206e6577206f776e657220697320746865207a65726f206160008201527f6464726573730000000000000000000000000000000000000000000000000000602082015250565b6000612cbf6026836120e2565b9150612cca82612c63565b604082019050919050565b60006020820190508181036000830152612cee81612cb2565b9050919050565b7f4552433732313a207472616e736665722066726f6d20696e636f72726563742060008201527f6f776e6572000000000000000000000000000000000000000000000000000000602082015250565b6000612d516025836120e2565b9150612d5c82612cf5565b604082019050919050565b60006020820190508181036000830152612d8081612d44565b9050919050565b7f4552433732313a207472616e7366657220746f20746865207a65726f2061646460008201527f7265737300000000000000000000000000000000000000000000000000000000602082015250565b6000612de36024836120e2565b9150612dee82612d87565b604082019050919050565b60006020820190508181036000830152612e1281612dd6565b9050919050565b7f4552433732313a206d696e7420746f20746865207a65726f2061646472657373600082015250565b6000612e4f6020836120e2565b9150612e5a82612e19565b602082019050919050565b60006020820190508181036000830152612e7e81612e42565b9050919050565b7f4552433732313a20746f6b656e20616c7265616479206d696e74656400000000600082015250565b6000612ebb601c836120e2565b9150612ec682612e85565b602082019050919050565b60006020820190508181036000830152612eea81612eae565b9050919050565b7f45524337323155524953746f726167653a2055524920736574206f66206e6f6e60008201527f6578697374656e7420746f6b656e000000000000000000000000000000000000602082015250565b6000612f4d602e836120e2565b9150612f5882612ef1565b604082019050919050565b60006020820190508181036000830152612f7c81612f40565b9050919050565b60008190508160005260206000209050919050565b60006020601f8301049050919050565b600082821b905092915050565b600060088302612fe57fffffffffffffffffffffffffffffffffffffffffffffffffffffffffffffffff82612fa8565b612fef8683612fa8565b95508019841693508086168417925050509392505050565b6000819050919050565b600061302c61302761302284612189565b613007565b612189565b9050919050565b6000819050919050565b61304683613011565b61305a61305282613033565b848454612fb5565b825550505050565b600090565b61306f613062565b61307a81848461303d565b505050565b5b8181101561309e57613093600082613067565b600181019050613080565b5050565b601f8211156130e3576130b481612f83565b6130bd84612f98565b810160208510156130cc578190505b6130e06130d885612f98565b83018261307f565b50505b505050565b600082821c905092915050565b6000613106600019846008026130e8565b1980831691505092915050565b600061311f83836130f5565b9150826002028217905092915050565b613138826120d7565b67ffffffffffffffff81111561315157613150612311565b5b61315b82546126ee565b6131668282856130a2565b600060209050601f8311600181146131995760008415613187578287015190505b6131918582613113565b8655506131f9565b601f1984166131a786612f83565b60005b828110156131cf578489015182556001820191506020850194506020810190506131aa565b868310156131ec57848901516131e8601f8916826130f5565b8355505b6001600288020188555050505b505050505050565b7f4f776e61626c653a2063616c6c6572206973206e6f7420746865206f776e6572600082015250565b60006132376020836120e2565b915061324282613201565b602082019050919050565b600060208201905081810360008301526132668161322a565b9050919050565b7f4552433732313a20617070726f766520746f2063616c6c657200000000000000600082015250565b60006132a36019836120e2565b91506132ae8261326d565b602082019050919050565b600060208201905081810360008301526132d281613296565b9050919050565b7f4552433732313a207472616e7366657220746f206e6f6e20455243373231526560008201527f63656976657220696d706c656d656e7465720000000000000000000000000000602082015250565b60006133356032836120e2565b9150613340826132d9565b604082019050919050565b6000602082019050818103600083015261336481613328565b9050919050565b600081519050919050565b600082825260208201905092915050565b60006133928261336b565b61339c8185613376565b93506133ac8185602086016120f3565b6133b58161211d565b840191505092915050565b60006080820190506133d5600083018761221e565b6133e2602083018661221e565b6133ef60408301856124c5565b81810360608301526134018184613387565b905095945050505050565b60008151905061341b81612048565b92915050565b60006020828403121561343757613436612012565b5b60006134458482850161340c565b91505092915050565b7f4e487b7100000000000000000000000000000000000000000000000000000000600052601260045260246000fdfea2646970667358221220b8582a38732d198c6a958256e29f88625bac5e5320de3f1a128366a8f89e63dd64736f6c63430008120033",
  "linkReferences": {},
  "deployedLinkReferences": {}
}